:1000000000100020C5010000750100003D0800003F
:100010007501000075010000750100007501000008
:100020007501000075010000182600007501000030
:1000300075010000602600007501000075010000D8
:1000400075010000750100007501000075010000D8
:1000500075010000750100007501000075010000C8
:1000600075010000750100007501000075010000B8
:1000700075010000750100007501000075010000A8
:100080007501000075010000750100007501000098
:100090007501000075010000750100007501000088
:1000A0007501000075010000750100007501000078
:1000B0007501000075010000750100007501000068
:1000C0007501000075010000750100007501000058
:1000D0007501000075010000750100007501000048
:1000E0007501000075010000750100007501000038
:1000F0007501000075010000750100007501000028
:100100007501000075010000750100007501000017
:100110007501000075010000750100007501000007
:1001200075010000750100007501000075010000F7
:100130007501000010B5054C237833B9044B13B199
:10014000044800E000BF0123237010BD68100020A8
:10015000000000002427000008B5034B1BB1034931
:10016000034800E000BF08BD000000006C10002044
:1001700024270000FEE70000064B0748DA1C121A8D
:10018000C11E22F00302994288BF0022034902F0F7
:100190000FBA00BF681000200810002030270000B0
:1001A000064B0748DA1C121AC11E22F003029942BC
:1001B00088BF0022002102F008BA00BF10130020FF
:1001C0006810002008B5084B83F30A88074B084ADB
:1001D000C3E9002200F00EF800F0A2FBFFF7CCFF0D
:1001E000FFF7DEFF00F02EFB0000002000100020D3
:1001F000A5EDF5FE044B054A9A60D3F8882042F439
:100200007002C3F88820704700ED00E00000000095
:1002100000F039B800F039B810B5164BADF50E7DC9
:1002200001AC0FCB84E80F002C22002105A802F0BE
:10023000CCF9FF234FF49472002144A88DF81530B7
:1002400002F0C3F96822002110A802F0BEF968226A
:1002500000212AA802F0B9F920232AAA10A944A84B
:1002600000F0EAFF224644A905A800F043F80DF586
:100270000E7D10BDF4250000704701790122043184
:10028000033000F08DBD00F0D9BC00B5C3B000F064
:1002900052FCB0F5027F17D14FF4847200216846FA
:1002A00002F093F9A0238DF8033002238DF8043077
:1002B00001238DF8063046238DF807300023684669
:1002C0008DF80830FFF7D9FF4FF48472002168469B
:1002D00002F07BF9A0238DF8033004238DF804305D
:1002E00000F060FACDF807006846FFF7C6FF43B09C
:1002F0005DF804FBF0B5ADF5097D04460E461746E2
:1003000000214FF4847246A802F05FF920238DF893
:100310001B3102238DF81C314FF48472002104A894
:1003200002F053F94FF47A7500F072FD0028FBD00B
:1003300001230095194603AA0DF1130000F08CFD6E
:100340009DF81330202BEFD101230321009503AA40
:1003500005A800F081FD0028DED1039B032BDBD133
:100360009DF8145075B140F6B8332946009303AA9E
:1003700001230DF1170000F06FFD0028CCD1039B85
:100380009D42C9D19DF81530002B56D19DF81650CD
:10039000022D0DD0032D1FD0012DBDD18DF81E5182
:1003A0008DF81F318DF8203146A8FFF766FFB3E7BF
:1003B000214630469DF81730009706AA00F078FFD6
:1003C0008DF81E5128B141F20703984214BF462010
:1003D0000020ADF81F01E7E7A3788DF81E5153B355
:1003E000E378002B0CBF4623002346A8ADF81F314D
:1003F000FFF743FFA378002B8ED0E378002B8BD040
:1004000023785A0707D5A06A00F0F2F918B14FF423
:10041000004000F097F923789B077FF57DAF656872
:1004200000F0C0F985427FF677AF616A4FF4004073
:1004300000F044F970E74623D7E7012B7FF46CAF57
:100440009DF81630012B7FF467AFA37833B1E378C2
:1004500023B940F2032000F045FB5DE79DF817301B
:10046000012B0CBF40F2022040F20120F3E74FF0D5
:1004700098435A6CD202FCD5586D00F47020704736
:10048000C0F30C032DE9F04105460F4616460BB9A3
:1004900000F055FB05F5005424F4FF5424F01F042C
:1004A00005EB0608A04507D8324639462846BDE880
:1004B000F041022300F04ABB204600F040FB04F567
:1004C0000054EFE770B40025AD6A03462E698642FA
:1004D00006D86C6913449C4202D370BCFFF7D0BFAE
:1004E00070BC70471FB510F5004F00F5004314466F
:1004F00003931AD2039BB3F57E2F16D2039BC3F549
:100500007E23934211D348B9836A5A69B2F5004FEA
:1005100004D91869019100F012FB01992246039851
:1005200004B0BDE81040FFF7ABBF04B010BD000041
:10053000F0B5421ED11C034685B019D86E460D4C4D
:1005400004F11007354620686168083403C5BC42D1
:100550002E46F7D10DF10F010F3311F8010912F8F2
:10056000014F844204D19A42F7D1012005B0F0BD79
:100570000020FBE704260000036913F0FE0F0CBF08
:1005800001200020704738B504460D46FFF7D0FF24
:1005900048B16369012B09D12046FFF7EDFF08B18F
:1005A000A3692B6038BD01202C60FBE70020F9E730
:1005B0002DE9F0410368044603F16043B3F5C03F01
:1005C0004FF00000A0B029D8826A636816699E4285
:1005D00024D8B3F5801F21D8656B06F14003AB42E8
:1005E00068D8B5F5801F65D82846FFF7A1FF002819
:1005F00060D02846FFF7C0FF80B16B6973B1022B52
:100600000FD1AB69C4F1040119444FF0FF32204609
:1006100001F072FA284BC31A5842584120B0BDE885
:10062000F08140F2046328460493FFF781FF08B984
:100630000020F3E72846FFF79FFF0028F8D00027A7
:10064000D7F834804046FFF773FF0028F0D0503EC3
:10065000B045EDD8284605A9FFF795FF0028E7D05B
:10066000BA6A059B12699A42E2D89C42E0D8B3F577
:10067000801FDDD806A801F001FB059A2146121B58
:1006800006A801F005FB06A801F004FB059C01F09B
:1006900005FB039001F01AFB21460090039B04F137
:1006A000200206A801F070FA04900498B0FA80F0D5
:1006B0004009B3E70120B1E7E320BBDE70B54FF09E
:1006C000FF3290B005460C4601F016FA1A4B9842DC
:1006D0002ED11C22002101A801F077FF174B2946DB
:1006E0006846043C009301F05CFD2146684601F039
:1006F00058FD684601F05EFDFFF7B9FE0646B8B941
:1007000040F2022000F0E3F91C22314609A801F072
:100710005CFF0B4B294608A8089301F042FD08A88E
:10072000214601F03EFD08A801F044FDFFF79FFEC1
:10073000002010B070BD00BFE320BBDE0100054308
:100740000100064330B5044691B01C22002101A8E7
:1007500001F03BFF114B21466846009301F021FD5B
:10076000684601F027FDFFF782FE054698B940F282
:10077000022000F0ACF91C22294609A801F025FF4F
:10078000074B08A82146089301F00BFD08A801F0CB
:1007900011FDFFF76CFE002011B030BD00000243D8
:1007A0000000034300239B6A9868704710B58CB023
:1007B0001C220446002105A801F007FF0A4B019402
:1007C000049301230293094B01A904A8039301F0A8
:1007D000DEFC04A801F0EEFCFFF749FEB0FA80F061
:1007E00040090CB010BD00BF000008430400002009
:1007F0004FF0FF3313B5044601A80193FFF7D6FF6E
:1008000020B1019BA3422CBF0020012002B010BDEB
:100810004FF40040704700207047002070470000F0
:1008200040B139B100230B60034B03600B6843F404
:1008300000530B60704700BF142400404FF4017058
:1008400000F050B913B501A801F0F8FC9DF805308F
:10085000012B27D12B4A936DDB0313D4536B23F465
:10086000FF0323F4FE4343F4BC1343F4A063536338
:10087000136B23F4704343F440431363136B43F44B
:10088000E06313639DF8043063B94FF000531B68B5
:100890001D4B1B681D4B1B681D4B1B681D4B1B68AC
:1008A0001D4B1B681D4AD2F8803043F00303C2F889
:1008B0008030FFF7B0FF00F0F8F8FFF7A9FCFFF772
:1008C000A9FC18B14FF4017000F00CF9FFF7A4FC7B
:1008D0000446FFF7D1FC1CB140F203739C4203D1E4
:1008E00040F2012000F0FEF8A4F20574012C94BF40
:1008F00040F203204FF4017000F0F4F8002002B041
:1009000010BD00BF00C0004000400020008000205B
:1009100000C00020000001200040012000800040B5
:1009200013B501244FF040238DF806408DF80740A1
:10093000D3F894305B060BD500F0E8F8A0F2022063
:1009400080B2072804D804FA00F010F0C90F02D1D1
:1009500000F018FB20B100238DF806308DF8073029
:100960004FF480435B68013308D14FF4027000F00C
:10097000AEF800238DF806308DF807309DF807306B
:1009800063B14FF48040FFF713FE8DF806009DF829
:1009900006301BB94FF4027000F099F89DF806304C
:1009A00063B14FF48043064A93601846016881F3AF
:1009B000088881F3098840688746FEE702B010BDC9
:1009C00000ED00E0B1F50D7F10B504460FD34FF4F4
:1009D0000D72002101F0F9FD04F5DE7204F5AA7133
:1009E00004F12C000023BDE8104000F025BC40F2CB
:1009F000052010BD13B50446009101462C3000F0CF
:100A000057FCC4F8300218B141F20703984209D1EB
:100A1000A3784BB140F2032040F20223E278002A8F
:100A200008BF184602B010BD40F20120FAE72DE9D8
:100A3000F04387B00DF1080904460E461746002121
:100A4000102248461D46DDF8388001F0BEFD002129
:100A50001C22C8F80010284601F0B7FD32463B467C
:100A60002146CDF8009004F12C0000F021FC237801
:100A70009A0744BF6268C8F80020DB0709D504F173
:100A8000080304F1240253F8041B934245F8041BA5
:100A9000F9D1237840F20640002B18BF002007B0A0
:100AA000BDE8F0834FF40D7070474FF000534CF2E7
:100AB0003C325A8070474FF000534AF6C0305B8892
:100AC00023F00F039BB21B1A5842584170474FF056
:100AD000005208B51080FFF7EEFF10B94FF20F0378
:100AE000538008BD08B5FFF7F2FFBFF34F8F0549EC
:100AF000054BCA6802F4E0621343CB60BFF34F8F2B
:100B000000BFFDE700ED00E00400FA054FF00053E0
:100B10004FF20F015A888A4201D1188870473AB9BA
:100B20001B8840F20220012B18BF4FF40070704761
:100B30004FF4007070474FF000531888704708B5A5
:100B400001F084FAB0FA80F0400908BD072B10B517
:100B5000044618460FD862B142EA04039B070AD143
:100B600013460A46214601F095FAB0FA80F0400992
:100B700010BD0120FCE70020FAE700001FB500F0DF
:100B8000BDF94FF47A23B0FBF3F00A4B0E22186044
:100B90000021684601F019FD01238DF8003040F274
:100BA000FF3369460448ADF8023001F05CFB05B044
:100BB0005DF804FB881000200080044030B50D4D26
:100BC0000D4A2D68536A15FB00F010FA83F09CB2B1
:100BD00080B2A0422CBF00240124084B1880084B8F
:100BE0001C7011B1536A8342FCD1012305494B614A
:100BF000936130BD881000200080044084100020E4
:100C00008610002000A00440094B0A4A5869127857
:100C100000F001000AB108B9704738B9586A064BAC
:100C20001B88984234BF0020012070470120704784
:100C30000080044086100020841000202DE9F0413F
:100C40000126DFF82C81424BD8F80020414F02F1F9
:100C50003C01996002F124037B627B6002F58053C2
:100C60005E6040F6AA630024536141F205033A4DE9
:100C70003A4802F500519460D465D3601461D461A0
:100C8000D4648864C5F8AC45C5F8C445C5F8BC450E
:100C9000C5F8B445C5F8B845D3609368936000F0D3
:100CA0002DF92F4B05211A6F4FF4E113C2F3802267
:100CB0003244B0FBF2F202F5E1425201B2FBF3F230
:100CC000284B203A03EAC202D8F800302046DA6105
:100CD0003346042201F04EF93346324606212046BF
:100CE00001F048F91423C5F8AC354FF4A0230422D1
:100CF000C5F8C4354FF4C0231146C5F8BC350320F0
:100D0000334601F037F90522D8F800304FF480213E
:100D10005A614FF0F053144A56609360134B54627B
:100D2000946314645465196002311466D4651767BE
:100D300059600321A3F50053C2F89040C2F88C40DB
:100D400059630223966402F580521361BDE8F08175
:100D5000481000200810002000C00340FFFF0100E1
:100D600000800040F8FF7F00000004400040044085
:100D700058100020084B586B10F0020006D00222D9
:100D80009A6203F5005301205A637047DB6A9B07A0
:100D9000FBD40222014BF6E700000440002004408F
:100DA0007F2938B50446154624D8FFF7E3FF20B362
:100DB0002046134B621890420DD1124B01391A880C
:100DC00061F30E121A80104AC2F8A0300223936415
:100DD00035B9002038BD10F8014B03F8014BEAE7A4
:100DE000FFF7C8FF0028FBD0084B1A6893699B06E1
:100DF000FCD5EEE741F20310ECE741F20620E9E70B
:100E000090120020481000200000044058100020DC
:100E10000E4BD86E40F2011398420FD040F20223DD
:100E200098420DD00A4BC01A0A4B1B6883420AD065
:100E30002ABFC3F50073C01AC01870470020F3E73B
:100E40004FF48070F0E70020704700BF00000440BE
:100E50008C1000208C1200202DE9F843089F0446D6
:100E60000D461646F3B9FFF7D3FFA84228BF284620
:100E700000214FF001084FF002091D4ADFF878E029
:100E800013681C4F04EB000C64451DD101B11360C5
:100E900006B1306041F20423A84234BF1846002056
:100EA000BDE8F8832FB1FFF769FE00213846FFF750
:100EB00085FEFFF7ADFFA842D5D2002FF9D0FFF78E
:100EC000A3FE0028F5D0CEE71EF803100133B3F5DA
:100ED000007F04F8011B04D10023C7F81090012102
:100EE000D2E7B3F5807F08BFC7F81080F7E700BFEF
:100EF0008C120020001004408C10002030B51A4BDA
:100F000087B001AA03F11005144618685968083320
:100F100003C4AB422246F7D11B782370134B1B6FDF
:100F200003F00703032B1BD0114A9368C3F3044358
:100F3000102B17D806A90B4413F8143C0D480E4982
:100F400043438B4203D19268C2F30162D340074A04
:100F5000106FC0F301300130B3FBF0F007B030BDCB
:100F6000064BF4E7064BF2E7B02600000080004095
:100F70000000014040420F0000093D0000F049021E
:100F8000C0EA210113B5012304220221032000F04D
:100F9000F1FF00230093009B632B1ADD0222012343
:100FA0001146032000F0E6FF00230193019BB3F5F7
:100FB000FA7F11DB0A4B0022D3F8A440022101235F
:100FC000032000F0D7FF6FEA940000F0010002B0A8
:100FD00010BD009B0133DDE7019B0133E5E700BF56
:100FE00000C00340002070470020704770B5D1E971
:100FF0000152AA4205D290F840302B449B1A402B54
:1010000010D9002012E00A6890F84040D65C90F8B1
:1010100041200133224402F03F02013486548B60A8
:1010200080F840408B689D42EDD8012070BD2DE9CD
:10103000F8431D461746D1E901329B1A90F840202B
:10104000044613449D420E469DF820909DF824804E
:1010500056D9FFF7CBFF00285CD1142341F20200E0
:1010600084F84630BDE8F88394F84120A25CFA5435
:1010700094F841200133013202F03F0284F841200C
:1010800094F84020013A84F8402094F840200AB1B6
:101090009D42E9D1D6E90121914201D29D4231D848
:1010A0009D42DAD129463846D4F8882000F024FD44
:1010B000C4F88800B9F1000F04D02A463946E06C24
:1010C00000F0E6FDB8F1000F08D094F843308BB182
:1010D0002B463A463946A06C00F045FD94F8433063
:1010E00043B1E36DA26D2B449342E36524BF00231B
:1010F00084F84330636D41F203002B446365B1E72C
:101100000023C2E73268525CFA54B26801330132FC
:10111000B260BFE70020A5E77FB50023CDE900332B
:10112000082315460DEB03020446FFF780FF41F24A
:1011300003039842064626D194F8433063B108224F
:10114000E06C0DEB020100F0A3FD08230DEB0302A0
:101150001146A06C00F007FD039A029B6A6094F8A8
:1011600043202B605AB9094A934208D0084A934257
:1011700005D00822E06C0DEB020100F089FD6B68E0
:10118000236500236365304604B070BDF70A0AF793
:10119000FC0404FC2DE9F743044658680E46174644
:1011A0009846002842D011F0030342D19B6A206E7A
:1011B0001B6902EB000C1D1D65451CD81C339842B1
:1011C00019D28542294638BF01469C4594BFC1EBE0
:1011D0000C02C1EB0302081AC5F1680506EB000911
:1011E000681820444946019201F0E2F9FF2148467F
:1011F000019A01F0EAF948F20403226E9A420BD8F0
:1012000048F20701B818884206D99B1AF258C4F868
:1012100080204FF0FF32F2503A46D8E90035206E78
:101220003146A8470020226E3A44226603B0BDE84A
:10123000F08341F20200F9E72DE9F04100254FF07B
:10124000FF3704468846164603F0200380F84230F4
:101250001822FF21C0E91855A0F8405080F84350EB
:10126000A0F8445080F84650C0F88870683001F00B
:10127000ACF988222946C4E91286C4F88070C4F803
:10128000847004F1900001F0A0F940F20113A4F879
:1012900024310123C4E9475784F8185184F82631D2
:1012A00016B1304600F0EAFC0020BDE8F0810000F5
:1012B0002DE9F04FA7B0CDE9132302930023044694
:1012C0000E46309DDFF8B4931593159A029B9A420F
:1012D00001D30020C7E094F84630142BF6D8DFE89D
:1012E00013F06700AE00A800520039002E00500233
:1012F0003900480239000202390048029703050408
:1013000015008C013E033E03D00205044FF0000897
:10131000636D0F2B00F291800127102316AA20463F
:10132000CDF80480009713A9FFF781FE41F2030373
:101330000990099A9A4200F05281099B44E00127E2
:10134000D4E91432934200F25E8184F8467041F28F
:10135000030339E04FF00108D4E9147297426CD9C5
:10136000BF1ADDE91423D21A94F84030032F1A442F
:1013700040F20B82032A00F20B82204613A9FFF7EA
:1013800035FE002320E00127636D072BDFD80823FB
:1013900016AA2046CDE9007713A9FFF748FE41F2CF
:1013A00003030C900C9A9A4200F0B2810C9B0BE064
:1013B00016AA204613A9FFF7AFFE41F203020690DA
:1013C000069B934202D0069B059345E0179A169917
:1013D0002265002262659E4A914240F0A481022269
:1013E00084F84620F0E7012316AA0093204608233C
:1013F000019713A9FFF71BFE41F203030790079A19
:101400009A4201D0079BDFE7169B03F07F43B3F1BD
:10141000407F05D0142384F8463041F20903D3E716
:10142000179BD80706D594F8423043F0010384F89F
:1014300042300027636D072BD5D901239EE120465A
:1014400016AA13A9FFF768FE41F203030890089F4C
:101450009F420BD0089F059741F20303059A9A42D9
:101460003FF433AF059827B0BDE8F08F94F84420DF
:10147000169B2AB1774A934240F087800D2336E0CD
:1014800094F84220D10741D594F84320002A3DD159
:1014900071498B4233D022D8704A934275D014D808
:1014A0006F4A934200F0888004D8694A93426CD016
:1014B0004B456AD0142316A884F84630FFF792FDF6
:1014C000002865D141F20807C5E7664A934279D002
:1014D000F0D8654A934258D0644A9342E9E75D4A9E
:1014E0009342CBD006D8624A9342E3D10F2384F8CB
:1014F0004630B0E75F4A934247D05F4AEDE710239A
:1015000084F84630236DC4E91632A4E7574A934263
:101510004AD02BD8514A934244D022D84B453FD091
:101520004F4A934244D016A8FFF75CFD00284BD0E9
:101530001323169884F84630C4F88C00FFF754FD46
:1015400094F842309A0686D5002884D04368002B50
:1015500081D0204698470890089B002B3FF47BAF32
:1015600016E0414A9342DED10323C0E7414A934249
:101570001CD010D83B4A934220D0364A9342D2D155
:1015800094F84330002B3FF479AF142384F84630AD
:1015900041F201075FE7384A9342C4D10823A6E726
:1015A0000A23A4E70523A2E70623A0E70C239EE76E
:1015B00094F84330002BE8D1112398E794F8433096
:1015C000002BE2D1122392E7142384F8463094F8DA
:1015D0004330002B3FF476AF41F204073BE7D4F8E9
:1015E00048A000F08BFB80230221CDE9000317AA5D
:1015F0003B46504600F094FA8AE6012384F84330D3
:1016000084F8463061E616AA2046CDE9007713A992
:10161000FFF70DFD41F203030A900A9A9A4201D0A6
:101620000A9BD1E60DF1580C06F108030DF1700E7E
:10163000624603CA724518605960944603F1080374
:10164000F6D110681860337843F00103337077E601
:10165000EB17A603FC0404FCF90707F9F40A0AF4E3
:10166000F30B0BF3F70A0AF7F50909F5F60808F684
:10167000FA0606FAFD0303FDFE0101FEEB17A65E66
:10168000337843F004033370199BB36273785B07BC
:1016900026D5EB238DF8583017238DF85930A62323
:1016A0008DF85A305E2300208DF85B30236D606624
:1016B000C4F8843094F8453043F0020384F8453090
:1016C000EF686FB104222B6816A9B8470822606E34
:1016D0002B68EF6818A91044B847636E103363662F
:1016E0000B2384F84630636D072B3FF630AE0123A1
:1016F00018AACDE900332046082313A9FFF797FC69
:1017000041F203030B900B9A9A42B9D00B9B5BE614
:101710003378179A43F002033370169B7360236D7E
:10172000083B73622AB1142384F8463041F2010366
:101730004AE6042384F8463094F84530626643F064
:10174000010384F845301FE6042316AA2046CDE99C
:10175000007713A9FFF76BFC41F203030D900D9A7C
:101760009A4201D00D9B2FE6236D042B02D9169BC4
:1017700023660127636D032BE6D9092384F84630DD
:10178000E5E50023636607233AE797423FF6F5ADA8
:10179000402F28BF4027974228BF1746032F88BFF6
:1017A00027F003073B4616AA2046CDE9008813A977
:1017B000FFF73DFC41F203030E900E9A9A4201D0CE
:1017C0000E9B01E694F846B0BBF1070F04D1D5F8A3
:1017D00008A0BAF1000F1BD1042FC7F1040A88BF7B
:1017E0004FF0000A16AB5246FF21D81900F0EDFE6B
:1017F000BBF1090FBA4414D12B465246204616A914
:10180000FFF7C8FC0E900E9B002B3FF4A5ADD7E769
:101810003A462B68606E16A9D047626E3A446266FB
:101820009AE5BBF1040F20D173789F077FF594AD43
:10183000EB68002B3FF490AD626E042A0BD80AEBE4
:101840000203062B07D917AB9B1A1A68C4F8842029
:101850004FF0FF321A60EF6852462B68606E16A98F
:10186000B847676E5744676676E5BBF10B0F7FF4A8
:1018700073AD737858077FF56FADEF68002FEBD12C
:101880006AE594F8427017F0200707D0D4F88C006E
:10189000FFF7AAFB074600283FF448AF4FF0010AC4
:1018A00042E04BB347B33B6933B320469847DDE989
:1018B000143294F840809B1A43448342FFF45DAD98
:1018C000D4E91421A2EB0108B8F1400F28BF4FF072
:1018D0004008984528BF984616AA43462046CDE9B9
:1018E00000AA13A9FFF7A3FB41F203030F900F9A7D
:1018F0009A4203D00F9B67E50120D8E794F8423065
:10190000990611D5002F3FF411AFD7F808B0BBF1FD
:10191000000F3FF40BAF2B464246204616A9D8478E
:101920000F900F9B002BE5D1D4E9142194F842309D
:10193000914203F02003B4D3002B3FF47EAD002F7F
:101940003FF47BADFB68002B3FF477AD2946204682
:1019500098470F900F9B002B3FF46FADCAE7002113
:101960008A6A496B1269503A91423FF6DFAE112BF9
:101970000FD194F81831002B7FF45FAD41F20603CC
:101980001093109A9A4202D1142384F84630109B87
:101990001AE594F84430002B7FF44FADCDE90033C5
:1019A00016AA4023204613A9FFF741FB41F2030387
:1019B0001090109A9A42EAD1E06C00F06BF994F81A
:1019C0001831A3B104F1B403E06C00931EAA04F132
:1019D000940316A900F0D8F81090109B9BB1002337
:1019E000F370142384F8463041F20603ECE4E76C0C
:1019F00000F054F9039000F069F9039B00901EAACF
:101A0000384616A9E6E70123F37084F8443014E55C
:101A1000002316AACDE900332046042313A9FFF7BB
:101A200006FB41F203031190119A9A4202D0119BD6
:101A3000059317E5D4F888202E4B9A4205D014233D
:101A400084F8463041F20503F2E70123F37094F87D
:101A50004530DA0707D5EF682FB104222B6810460E
:101A600004F18401B84794F845309B0707D5EF6827
:101A70002FB104222B68104604F18401B847236E6D
:101A80006BB36F685FB34FF0FF3304F18001042242
:101A900012A81293029100F07BFD28B1042248F2B3
:101AA00004002B680299B84704F1680904224946EA
:101AB00012A800F06DFD90B100239B6A1422D3F8A8
:101AC000108004F16C0108F10800D5E90037B8472F
:101AD000D5E900370422494608EB0200B847012344
:101AE000B3700E2384F846300023A1E741F20700CB
:101AF000B9E400BFE320BBDE30B501240025074B6D
:101B000001445C609D601A61DC60884201D1586AC2
:101B100030BD10F8012B1A62F7E700BF00800840C3
:101B2000F7B50446203016461D460F46019000F0DA
:101B3000EBFBDDE90812019800F0EAFB002384F8D2
:101B4000587063643368C4F859307368C4F85D3002
:101B5000B368C4F861302B0C6DBA84F86530A4F812
:101B6000665003B0F0BD1FB50C46194600F148039E
:101B7000CDE90142009300F1440200F15803203006
:101B800000F042FC04B010BD2DE9F04399B00E46C0
:101B900015461C460746DDF88090002861D00029D4
:101BA0005FD0002A5DD0002B58D02F4B2F4AB9F1BF
:101BB000000F14BF984690461C22002111A800F087
:101BC00004FD2B4B414610A8109300F0EAFA2021A7
:101BD00010A800F0E6FA0122264B0194029203932A
:101BE000CDF810900592069354B1B9F1000F07D0CB
:101BF00001A910A800F0C1FA04A910A800F0BDFACC
:101C0000079701271B4C07A910A80897099400F013
:101C1000B4FA0AA910A80A960B970C940D950E9782
:101C20000F9400F0AAFA0DA910A800F0A6FA10A8C7
:101C300000F0C0FA104B00934FF098435A6CD20258
:101C4000FCD55B6D40F2046003F470230093009BAD
:101C5000002B08BF002019B0BDE8F083DFF80C802E
:101C6000AAE740F20160F6E71F2400801F24FC84ED
:101C700000000106200000207856341210B50446FA
:101C800000F0F4F82046BDE81040002100F0F2B862
:101C900000F0F5B8014600F0FFB8000000B591B0C3
:101CA0000023402269464FF4807000F0A1FAB0F59D
:101CB000A02F07D0B0F5302F034818BF002011B077
:101CC0005DF804FB0048FAE74CE30F0000B591B063
:101CD0000023402269464FF4807000F089FAB0F585
:101CE000A02F07D0B0F5302F034818BF002011B047
:101CF0005DF804FB0048FAE76CE30F00004870470A
:101D000086E20F002DE9F34799460A9B0C461968B5
:101D100005463F29164642D85A68002A41D0224A31
:101D2000002E14BFB046904601F03F07091928BFA6
:101D30005A68196024BF01325A60AFB1C7F1400A36
:101D4000A24521D82946524609EB070000F030FC95
:101D50000123414600934A463346002000F0A4F890
:101D6000B046403C55443C443F2C0CD9A3092A467C
:101D7000009341463346002000F096F824F03F03DC
:101D80001D4404F03F0400272CB12246294609EBEC
:101D9000070000F00DFC002002B0BDE8F08790467F
:101DA000C2E7DFF80480BFE7C126000030B4054673
:101DB000084611461A46DDE9023425B931B10294CC
:101DC00030BCFFF79FBF024830BC70470846FBE7B6
:101DD00080AFFFFF2DE9F0411746146886B01E461C
:101DE000E3008DF80F30630952688DF80E30630BF5
:101DF0008DF80D30630D8DF80C30D30003EB547368
:101E00008DF80B3004F03F045309372C8DF80A305D
:101E10004FEA52334FEA525205468DF80820884661
:101E200094BFC4F13802C4F17802CDE900178DF8EF
:101E300009300D4903460020FFF7B8FF082143464B
:101E40002A4600970DEB0100FFF75CFF284605F1DD
:101E5000200350F8042B984246F8042BF9D10020B7
:101E600006B0BDE8F08100BFE12600006822002135
:101E700000F0ABBB0023C0E900331846704707B53C
:101E800000F128030190009300F108030020FFF700
:101E90008DFF03B05DF804FB02460B4600F12801FC
:101EA0000830FFF797BF0000F0B593B00E46174615
:101EB0000446202200210AA81D4600F086FB0120CE
:101EC0004FF00052019702900392049605900692FB
:101ED000079508900992002C2FD1189C184BA4014B
:101EE00021460AA80A9300F05CF903990AA80C435A
:101EF0000394069B04A943F020030693099B43F037
:101F00002003099300F039F901A90AA800F035F976
:101F100007A90AA800F03BF90AA800F04BF94FF016
:101F200098435A6CD202FCD55B6D13F4702F0CBF32
:101F300000206FF06F0013B0F0BD6FF07100FAE792
:101F400000040103EFF3108072B6704700B962B667
:101F5000704770B5054614460E46FFF7F3FF296833
:101F600081EA040202EA06044C402C60BDE870409D
:101F7000FFF7ECBFF8B504460D461F4616464AB1BA
:101F800001238B403021194A01FB0022FFB141F2AD
:101F90001001535004EB4403072D4FF00F014FEA9B
:101FA000031317D8A80006FA00F28140104818441D
:101FB000FFF7CFFF56B9012130230C4801FA05F590
:101FC00003FB040077B141F21003C550F8BD42F2A3
:101FD0001001DEE7A5F10800800006FA00F281405A
:101FE0000448E4E742F21003EFE700BF00C00340FB
:101FF00004C003400CC00340F0B5114A114C124E0E
:1020000000F00105E3695F0713D40DB9334213D122
:1020100003EA00078F4207D10B4A1A40002A14BF77
:102020006FF001000020F0BD013AEBD16FF002002B
:10203000F9E74FF0FF30F6E76FF00100F3E700BF7C
:1020400080969800000003400200010038B541F678
:10205000713301220C4C0021E569E3630B4B05F45D
:102060008035DA600223606121202361FFF7C4FF1D
:1020700010B92120FFF7C0FF0122054BDA600DB136
:102080000023E36338BD00BF00000340001003409D
:10209000002003402DE9F04F06464FF45025012063
:1020A0002A4CDFF8B4C041F67137CCF8040044F88C
:1020B000265030250024DFF8A4E0DFF8A49005FBCB
:1020C00006E5EC652C662C67214CDFF898A0D4F867
:1020D0001C80E763E76800FA06F60743E7604BB940
:1020E000E26818F4803F22F00102E26000D0E3636E
:1020F000184628E001F5005000EA0900401A98420D
:1021000028BF18466161D4F81CB087081BF0040F83
:1021100017D1013F3F0147F060576F66AA66C5F8C7
:102120006CA0CCF82460DEF834703E42FBD0094F3E
:1021300001447E630427CCF82860024427611B1AFF
:10214000CDE74FF0FF30BDE8F08F00BF0040044006
:102150000000034000200440001004400000044040
:1021600000E0FFFF180003404FF098435A6CD20282
:10217000FCD5586D00F470207047436813B9416076
:1021800070475B685A68012AFBD1596070478368C1
:1021900013B9816070475B685A68012AFBD15960A6
:1021A0007047C369032B9FBF00EB83020133D160EB
:1021B000C3617047C369042B15D84FF09842116C66
:1021C000C902FCD504339B0013650168103B116004
:1021D00041680C30116050F8041C034411604FF04A
:1021E0009842984200D1704750F8041B1160F8E7FC
:1021F000F0B507460F4D10488DB0002B08BF0546BF
:102200000E46144600211C2205A800F0DEF9012329
:1022100004A801A93D4344F000540196049502939B
:102220000394FFF7B4FFFFF7C5FFFFF79DFF0DB065
:10223000F0BD00BF01000AFF010008FF054B5B690C
:10224000C3F38512827003F03F021B0B42700370D0
:10225000704700BF00C00740036BDA0702D503696F
:102260005B06F9D4704710B5FFF7F6FF012200F5C1
:1022700000531A630B79044648881B0243EA8043E3
:10228000487A03434878002814BF402000200343C5
:10229000887A002814BF802000200343C87A0028D1
:1022A00014BF202000200343087B002814BF102007
:1022B00000200343487B002814BF0820002003436C
:1022C0008879002814BF4FF48030002003436360F6
:1022D00004F580531A630A780AB90223E3600023E5
:1022E0006362C8790B7A497943EA8003002914BFF5
:1022F000102100210B43A3600AB10123E36010BD4C
:1023000000207047002070472422002100F05DB9B2
:1023100070B515460E4624220021044600F055F9FA
:1023200025F04003802B02D0B5F5807F08D12046F0
:10233000314640F8045BEA0800F03AF9002070BD2D
:102340006FF01F00FBE700002DE9F04104681E4616
:1023500024F04003802B05468846174692B002D0F1
:10236000B4F5807F43D11C2200210BA800F02DF989
:10237000224A234B0121B8F1010F18BF13460A93DB
:102380002B1D0193E4081F4B44F0005402910AA84E
:1023900003940497059106930796089101A9099360
:1023A000FFF7EBFE04A90AA8FFF7E7FE07A90AA8B2
:1023B000FFF7EDFE29680AA8C908FFF7F2FE102111
:1023C0000AA8FFF7EEFEFFF79BFF98B90AA8FFF7F0
:1023D000F1FE4FF098435A6CD202FCD55C6DFFF7CA
:1023E00091FF04F47024204612B0BDE8F0816FF034
:1023F0007100F9E74FF0FF30F6E700BF000101047C
:1024000000010004100000202DE9F04F9BB00746AA
:10241000894698461646DDF894B072B115683B6857
:1024200023F04002802A03D0B3F5807F40F0A680DD
:102430000BEB0903002400930DE01546EFE795B17F
:10244000249A1BF80430525D01355340269A05F05A
:102450000F05135501344C45F1D3002E00F0918047
:102460000020356067E0A9EB040ABAF10F0F57D9D5
:102470001C22294613A800F0A8F8434B3A6812938F
:102480003B1D03930123D20842F0005204930592AE
:102490003E4A2699CDF818802AF00F0A0793089231
:1024A000CDF824800A930B920BEB04020C9221448A
:1024B0004AF000520D9312A80E920F9103A91093A7
:1024C0001192FFF75AFE06A912A8FFF756FE0CA9B3
:1024D00012A8FFF752FE0FA912A8FFF758FE09A98C
:1024E00012A8FFF754FE396812A8C908FFF759FE71
:1024F000514612A8FFF755FEFFF702FFC8B912A810
:10250000FFF758FE4FF098435A6CD202FCD55B6D32
:10251000544403F470230193FFF7F4FE019B5BBB6B
:10252000269B0BEB040A1C44009B9A4506D14C46A3
:1025300091E74FF0FF301BB0BDE8F08F8DB94246F8
:1025400001213846249BFFF7FFFE0028F3D108F154
:10255000100212F8013D0133DBB213700BB9904544
:10256000F7D1249A1AF8013B525D0135534004F823
:10257000013B05F00F05D7E71846DCE76FF01F00B9
:10258000D9E73046D7E700BF03030004100000205E
:102590000139024410B5904201D1002005E00378D2
:1025A00011F8014FA34201D0181B10BD0130F2E712
:1025B0000A44431E914200D1704710B511F8014BF7
:1025C000914203F8014FF9D110BD024403469342F2
:1025D00000D1704703F8011BF9E70000F8B500BF10
:1025E000F8BC08BC9E467047F8B500BFF8BC08BCF4
:1025F0009E46704700000000C50400000000000077
:10260000E5040000B814B6F1E0CFF3ADB7DD25C99D
:10261000FA79B7130000000007B0CD5E0200000099
:10262000000001029427000000400000000010009C
:10263000F0041000170800001B080000B10500009E
:10264000C5090000F5090000000000002F0A000085
:10265000A50A000000000000210800001108000089
:1026600013B779FAC925DDB7ADF3CFE0F1B614B8E9
:102670000102000000000000902700004000000060
:102680000000010200000000000000000000000047
:10269000000000000000000000000000000000003A
:1026A000000000000000000000000000000000002A
:1026B0000400000700000D1013001A2026303840D7
:1026C000506A09E667BB67AE853C6EF372A54FF5AD
:1026D0003A510E527F9B05688C1F83D9AB5BE0CDCE
:1026E0001980000000000000000000000000000051
:1026F00000000000000000000000000000000000DA
:1027000000000000000000000000000000000000C9
:1027100000000000000000000000000000000000B9
:102720000000000030270000081000201800000002
:10273000F00F1003000000008C10002013000000B8
:102740000900000000010000020200001300000068
:10275000F00F1003000000008C1100201300000097
:10276000090000000002000001010000D3FFFFFF8C
:10277000F07F1030901200200000000000000000E8
:1027800000800540210000005901000035010000D3
:102790000FF060FD054638B1A3681868C5B10E4A50
:1027A0000E490CF049FFEDE70D4B02221A70802014
:1027B00007F0B8F80B4B1B88102BEDD10A4B1B7898
:1027C0000F2BE9D1084B18221A7070225A70E3E7D8
:1027D000064AE5E734410020683B0200743B0200F2
:1027E00036080020C80C0020C8080020E83A020083
:1027F00038B5044683681968012008F09DFE00B9C9
:1028000038BD052005F06EFC114B18680FF024FD53
:10281000054638B1A3681868C5B10E4A0E490CF0D8
:102820000BFFEDE70D4B02221A70E02007F07AF85B
:102830000B4B1B88102BEDD10A4B1B780F2BE9D1CA
:10284000084B18221A7070225A70E3E7064AE5E72F
:1028500034410020683B0200743B0200360800202F
:10286000C80C0020C8080020E83A020030B583B048
:10287000044683681968012008F05EFE08B903B0B9
:1028800030BD052005F02EFCA268E36852F8233025
:102890001D786B1EDBB2032B10D829460C4B186831
:1028A0000FF0DCFC0346A26810682BB1094A2B46E6
:1028B00009490CF0C1FEE2E7084AF8E71068042372
:1028C00000930123064A20210CF00EFFD7E700BF3A
:1028D00034410020683B0200803B0200E83A0200DD
:1028E000983B020030B583B0044683681968012024
:1028F00008F022FE08B903B030BD052005F0F2FB58
:10290000A268E36852F823301D786B1EDBB2032BFC
:1029100010D829460C4B18680FF0A2FC0346A26899
:1029200010682BB1094A2B4609490CF085FEE2E7F5
:10293000084AF8E71068042300930123064A20217F
:102940000CF0D2FED7E700BF34410020683B020004
:10295000803B0200E83A0200983B02002DE9F04378
:1029600085B004468268C36852F823100D78591C5C
:1029700052F8211091F80080991C52F821100F781C
:10298000D91C52F821100E784168C91A04293ADD81
:10299000043352F8233093F80090B9F1000918BFBE
:1029A0004FF00109002D31D12946B8F1000F01D0B7
:1029B00041F004010FB141F002010EB141F00101FB
:1029C000B9F1000F01D041F020011A4B18680FF047
:1029D000A0FCE8B9A36818680DB3174AB8F1000F56
:1029E0001FD0154BFFB11449FEB1134CB9F1000FC4
:1029F0001DD0114D02950194009110490CF01CFE60
:102A000005B0BDE8F0834FF00009CBE70821CCE723
:102A1000A3680B4A232118680CF066FEF0E7094A08
:102A2000DCE7084BDEE70749DEE7064CDEE7054D4D
:102A3000E0E700BF34410020E83A0200E83B020032
:102A4000C03B0200683B020038B504468368C26898
:102A500053F822301D78291E18BF01210A4B18682F
:102A60000FF033FC38B9A36818685DB1074A08490C
:102A70000CF0E2FD38BDA368064A242118680CF06A
:102A800033FEF7E7044AF2E734410020E83A020057
:102A90005C3C0200383C0200683B020038B504464A
:102AA0008368C26853F822301D78291E18BF01219F
:102AB0000A4B18680FF0F9FB38B9A36818685DB1C4
:102AC000074A08490CF0B8FD38BDA368064A24211E
:102AD00018680CF009FEF7E7044AF2E734410020D9
:102AE000E83A0200943C0200703C0200683B02009D
:102AF00010B504468068E36850F8232011886268A6
:102B0000D21A012A11DD013350F823301A78084B0C
:102B100018680FF0B8FBA3681C6803F0BDF8024604
:102B2000044920460CF088FD10BD0022EFE700BFED
:102B300034410020A83C020010B504468068E368D8
:102B400050F8232011886268D21A012A11DD01335E
:102B500050F823301A78084B18680FF09AFBA368D6
:102B60001C6803F099F80246044920460CF064FD05
:102B700010BD0022EFE700BF34410020BC3C020042
:102B800010B582B0044600230AE0A168E2681A4446
:102B900051F82220117802AA1A4402F8081C0133C5
:102BA000072BF2DD6368E2689B1A082B14DDA3682B
:102BB000083253F822301A786946084B18680FF02B
:102BC0006EFBA3681C6803F067F8024604492046C0
:102BD0000CF032FD02B010BD0022EDE734410020C0
:102BE000D43C02002DE9F0418AB0044601AD474EC5
:102BF0000FCE0FC50FCE0FC533682B6000273E46A2
:102C000038E0A06873180022114650F8230018F02D
:102C1000CBFC83B23DE0A0680B440022114650F883
:102C2000230018F0C1FC83B247E0A0680B440022E7
:102C3000114650F8230018F0B7FC80468E4652E04B
:102C4000EB00C3F1200CA3F1200028FA03F20EFAE6
:102C50000CFC42EA0C022EFA00F002430AA80344DC
:102C60000B4403F8182C01310729E9DD0336F6B2CD
:102C70000137FFB2022F38D832466368E1685B1A29
:102C80009E4232DA012EBCD8A3680A4453F822309F
:102C90001B883D460AAA02EB470222F8243C731C1B
:102CA000DBB26268E168521A93421EDA012BB2D895
:102CB000A2680B4452F823301B880AAA02EB450293
:102CC00022F81E3CB31CDBB26268E168521A9342E0
:102CD0000BDA012BA9D8A2680B4452F82330B3F8C1
:102CE00000804FF0000E0021BEE701A9084B1868D4
:102CF0000FF0C7FAA3681C6802F0CEFF0246054930
:102D000020460CF099FC0AB0BDE8F081A03E02001C
:102D100034410020EC3C020008B58368C26853F8D7
:102D20002220126803490A60034918680CF084FCE9
:102D300008BD00BF342E0020043D020030B583B032
:102D400004468368C26853F822301D682A464FF053
:102D5000FF31154B18680FF0C8FAB8B905F0020139
:102D6000C5F34003114A1370A368186815F0010FEA
:102D700013D00F4A99B10E4B15F0040F11D00C4926
:102D800000910C490CF058FC03B030BDA3680A4A0E
:102D90001F2118680CF0A8FCF6E7084AEAE7074B81
:102DA000EAE70649ECE700BF344100203C2E002052
:102DB000883A02002C3D0200183D0200803A0200D1
:102DC00030B583B004468368C26853F822301D686A
:102DD0002A464FF0FF31164B18680FF098FAB8B931
:102DE00015F001031BD00221124A1170A26810686D
:102DF000BBB1114A15F0020F15D00F4B15F0040F9F
:102E000013D00D4900910D490CF016FC03B030BDF4
:102E1000A3680B4A1F2118680CF066FCF6E7012135
:102E2000E2E7084AE6E7074BE8E70649EAE700BFBA
:102E30003441002036080020883A02007C3D020020
:102E4000683D0200803A0200F8B504468268C36813
:102E500052F823100E78013352F823301D782F1EBC
:102E600018BF0127311E18BF01210F4B18680FF042
:102E700060FA10B95EB10D4E00E00D4E39460A4BB6
:102E800018680FF066FA20B95DB1084B02E0094EF0
:102E9000F4E7074BA0683246074900680CF0CCFB0A
:102EA000F8BD044BF6E700BF34410020E83A0200C9
:102EB000706C0200683B0200B43D020070B506462B
:102EC0008468C26854F822301B78052B17D800217B
:102ED00008465BB17168891A022916DD511C54F845
:102EE00021100978023254F8222010789BB9454B02
:102EF0001C88013404F07F040125002266E0424A68
:102F00001F2120680CF0F0FB6FE0404A1F21206871
:102F10000CF0EAFB69E0012B0BD03A4A1488043C20
:102F2000C4F30A049A1E032A45D8DFE802F01C2BDA
:102F300035400A1E18BF0122031E18BF012381B1AC
:102F4000022130480488023C11FA84F4C4F30A04D4
:102F5000DB0243EA02331C4394FAA4F4240C022556
:102F6000CBE70421EDE701F01F0100F00300E401CD
:102F700044EAC14444EAC004052B37D094FAA4F4CF
:102F80000425BAE7003918BF012100F003025203FB
:102F900042EAC1321443EFE7003918BF0121021E93
:102FA00018BF0122D20242EA01310C43E4E72406B1
:102FB00004F0FE44E0E70024DEE7D100FF238B406D
:102FC0002340CB4012498B540132D2B29542F4D8FF
:102FD000104B9B7863B1B06823462A460E490068BF
:102FE0000CF02AFB304603F07BFE70BD042584E71D
:102FF0000123044A12880649084800680EF01FFDA4
:10300000E9E700BFC80C0020CC3D0200E43D02000F
:10301000C808002030410020003E0200344100205A
:1030200008B5C36843608368024A1F2118680CF022
:103030005BFB08BD143E02002DE9F04F99B0044639
:10304000BC4B1868002840F08280BB4B1D78002DD7
:1030500000F06182B94B1E7809A920460EF0FBFCF6
:10306000BDF82630B21C934274D3192B0BD9192307
:10307000ADF82630BDF82830182B04D91923ADF847
:10308000283000230C93BDF828200B990EA817F0C8
:1030900031FF0C9949B1BDF82620BDF82800121A5D
:1030A00092B20EAB184417F025FF731CDBB218AABE
:1030B000324412F828CC1FFA8CF00CF00702052AD3
:1030C0004DD0B21CD2B218A90B4413F8283C4CEADC
:1030D00003239C4603F44056990A01F03801580A2C
:1030E00000F006000143C3F380100143944830F818
:1030F00011E04FF6FF718E4568D0B6F5005F6AD0DB
:10310000511CC9B218A8024412F8287CB6F5005F19
:1031100067D05FEA1E3000F0F4810EF00F02CEF3AC
:1031200003131A44CEF30323134451FA83F1C9B2B3
:103130000844BDF82630984200F3E88118AB1944E2
:1031400011F8283CAA2B14BF00230123F1E10EF053
:1031500042FD7AE77B4A936A01339362EDE11CF00A
:10316000080F31D0B21CD2B218A9194411F8280C9A
:103170004CEA0020810901F40271C30903F0100335
:103180001943430A03F020031943830803F4A0738F
:103190001943830103F440631943000200F44040E3
:1031A000014341F4005343F0050311F44C4190D026
:1031B000B1F5084F8DD0B1F50C4F8AD0B1F5484F1D
:1031C00087D083F0400384E71A46D3E75D4A936AC9
:1031D00001339362B1E113F4807F91D0114600274F
:1031E00094E7594AB2F84020ADF8042000228DF847
:1031F00006200EF00F068DF8046008467218BDF820
:103200002680424519DC7EB14A1C0DF16009484414
:1032100010F8280C8DF805000231C9B259FA82F273
:1032200012F8282C8DF80620CEF303128DF80C200E
:103230000A44904506DB012216E0424A936A0133B4
:1032400093627AE13F4A936A0133936275E1481CC5
:103250000DF16009494411F8289C18A9114401F89E
:10326000549C0132D2B2C1B29DF80C009042EED211
:10327000CEF303298DF808908A4609EB01029045A8
:103280001BDBB9F1000F0FD04A1C0DF1600BDA44C3
:103290001AF828AC8DF809A00231C9B25BFA82F2A3
:1032A00012F8282C8DF80A204FEA1E3E8DF818E0FF
:1032B0008E44F04506DB012218E0224A936A01336E
:1032C00093623AE11F4A936A0133936235E101F157
:1032D000010E0DF16008414411F8288C18A9114421
:1032E00001F8488C0132D2B25FFA8EF19DF818E0F5
:1032F0009645ECD203F4A0724FEA1C1C0CF4406C0F
:1033000042EA0C0C1A0102F440424CEA020C4CF462
:10331000005848F00208BEF1000F17D09DF81920A0
:10332000AA2A01D0002512E04CF4005848F01208F7
:103330000DE000BF342E00203C2E00203608002077
:10334000E83E0200F83F0020843E020000258A4A41
:10335000117801F1010C18AA0A4402F8288C8A1C81
:10336000D2B24FEA182A0DF1600B5BFA8CFC0CF814
:1033700028AC13F4807F04D1CB1C5A4402F8287C7B
:10338000DAB24FEA982303F038034FEA582707F0E0
:1033900006073B43C8F3801843EA0808774B33F825
:1033A00018804FF6FF73984532D018F00F0F13D0E6
:1033B000B9F1000F31D0531C9DF809C018AF174464
:1033C00007F828CC0232D2B29DF80A700DF1600CD9
:1033D0005CFA83F303F8287C18F0F00F46D118F458
:1033E000706F55D0002E43D1B9F1000F64D0531C3B
:1033F0009DF8097018AE164406F8287C0232D2B245
:103400009DF80A6018AF57FA83F303F8286C3FE081
:103410005B4A936A013393628FE08EB1531C9DF82F
:1034200005C018AF174407F828CC0232D2B29DF875
:1034300006700DF1600C5CFA83F303F8287CCBE78F
:103440004F4A936A0133936277E0571C0DF1600C89
:103450009C441CF848CC0DF1600A524402F828CC78
:103460000133DBB2FAB29E45EFD2B8E70123FAE7A7
:10347000531C9DF8057018AE164406F8287C0232DD
:10348000D2B29DF8066018AF57FA83F303F8286CA0
:1034900018F4704F15D1022924D0531C8DF8383000
:1034A0000EA920460EF06AFF28BB002D45D0344AF5
:1034B000136A0133136240E0314A936A0133936225
:1034C0003BE001239842E6D3561C18AF1F4417F87F
:1034D000547C0DF1600C624402F8287C0133DBB2AD
:1034E000F2B2EFE718238DF8383092FAA2F31B0EF0
:1034F0008DF83930D4E705B3214A536A013353625A
:103500001BE01F4A936A0133936216E01C4A936AD8
:103510000133936211E015A920460EF02CFF78B913
:103520009DF85C30032B10D09DF85430AA2B12D09C
:103530000023144A12789A420FD119B0BDE8F08FD7
:103540000F4A936A01339362F7E79DF85430AA2B30
:10355000EAD10123EDE70123EBE720460EF009FF56
:1035600020B9074A136A01331362E6E7044A536A33
:1035700001335362E1E700BF36080020E83E020055
:10358000F83F00203D2E002038B504468368C2680D
:1035900053F822301D782946084B18680EF013FFA7
:1035A00030B9A3682A46064918680CF045F838BDBA
:1035B000A368044918680CF03FF8F8E7344100208C
:1035C000403E02004C3E020008B58368024918687C
:1035D0000CF032F808BD00BF643E0200F8B50546A5
:1035E0007AB9002303700BE0325D084928460DF0DC
:1035F00007FA05440134A742F6DC002305F8013C34
:10360000F8BD0E4617460024F5E700BF683F0200EC
:1036100010B50446074B18680EF0A8FAA3681B689B
:1036200028B1054A054918460CF006F810BD044AB1
:10363000F8E700BF34410020E83A0200703F020082
:10364000683B020010B504468368C26853F8223014
:103650001968003918BF0121044B18680EF082FA6E
:10366000E36863602046FFF7D3FF10BD34410020BC
:103670002DE9F04184B08368184918680BF092FF77
:10368000002523E0164A0292164A01920091224632
:10369000294612480BF0AEFF0134032C15DC4FEA2B
:1036A000850804EB8503104F7E19B2780F4901EBB2
:1036B000C3010C48FFF792FF7B5DB1780C4A42448E
:1036C000125D002ADED00B4ADDE70135012D01DC59
:1036D0000024E2E704B0BDE8F08100BF843F0200AF
:1036E000683B0200482E0020B82E0020782E0020D3
:1036F000402E0020E83A020070B504464022002126
:10370000254817F01EFC08220021244817F019FC58
:10371000A668E56856F825301A68214B5A6060683B
:10372000401B042802DC013800230FE00420FBE7E3
:103730005A1C2A4456F8221003EBD37291F800C0A9
:10374000174901EB620282F802C0013383420FDAAB
:1037500013F0010FECD15A1C2A4456F8221003EB47
:10376000D372521091F800C00D4901F802C0ECE785
:103770000B490C4B18680EF0F7F928B9E368636041
:103780002046FFF775FF70BDA368074A302118680F
:103790000BF0AAFFF7E700BF782E0020402E002094
:1037A000B82E002034410020C03F020008B58368D5
:1037B000024A342118680BF097FF08BDEC3F020065
:1037C000F0B585B08368C26853F822100D78511C9B
:1037D00053F821100E7806EB8507012D0ED804460C
:1037E000032E0BD841688A1A0A2A0EDC082200210F
:1037F0000DEB020017F0A5FB002217E01F4A312154
:1038000018680BF071FF05B0F0BD1D4A3221186831
:103810000BF06AFFF7E7A168931C034451F82330CB
:10382000197804AB134403F8081C01326368E0689C
:103830001B1A023B9342EEDC124B03EB85039B5DAC
:10384000009302AB324629460F4800680EF080F91B
:1038500068B908220DEB02010C4800EBC70017F015
:1038600049FBE36863602046FFF702FFCBE7A368EC
:10387000074A332118680BF037FFC4E714400200F1
:103880003C400200402E002034410020782E0020D1
:103890005C400200F0B585B004468268C36852F807
:1038A00023100E78591C52F821100F78023352F869
:1038B00023301D78003D18BF01253B46324629467E
:1038C000124800680EF04CF9B8B9114B03EB8603AF
:1038D000DD55A36818680F4B9A5D33449B789DB102
:1038E0000D4903910D490291019300923B463246E6
:1038F0000B490BF0A1FE05B0F0BDA368094A3421C5
:1039000018680BF0F1FEF6E70749EAE734410020BA
:10391000402E0020B82E0020E83A0200482E002059
:10392000843F02007C400200683B020070B58CB00E
:10393000044601203A4B1870A368196807F0FCFD93
:1039400008B90CB070BDA368E0680422354953F88B
:10395000200017F0BFFA002835D1314B01221A712F
:103960009A710023059306930793089309930A938A
:103970000B93A268E368591C52F82110098807913B
:103980000591023352F823301B8808930A2B01D982
:103990000A3B0693A268E368033352F823301B887E
:1039A0001F4E7380204D05A928680DF057FB314646
:1039B00028680EF01EF80146D0B1A3681B4A1868AB
:1039C0000BF092FEBDE7A368E0680222184953F8A5
:1039D000200017F07FFA20B9114B02221A719A7158
:1039E000BFE7A368134A202118680BF07DFEA8E703
:1039F000A3681E680A4D287907F020FD0446A879BF
:103A000007F01CFD03466A880292089A0192079A01
:103A100000922246084930460BF00EFE91E700BFA7
:103A2000C02E0020903A020034410020A040020045
:103A300008C90100983A0200D0400200F0B583B0F6
:103A40000646104F38680DF0E4FF054638680DF063
:103A5000EEFF044638680DF0EEFF0146B3681868C3
:103A600055B1094A54B1094B51B10849009108496F
:103A70000BF0E2FD03B0F0BD064AF3E7064BF3E7B7
:103A80000549F3E734410020E83A020030410200E2
:103A900038410200683B02002441020010B584B0A6
:103AA0000446104B1B88ADF80C3000228DF8042022
:103AB000ADF80620ADF80830ADF80A3001A90A4B80
:103AC00018680DF096FF30B9E36863602046FFF791
:103AD000B5FF04B010BD0146A368044A18680BF096
:103AE00003FEF1E7A0410200344100206C410200D6
:103AF00070B504468268C36852F823100978013310
:103B000052F823301E78094D003918BF012128686A
:103B10000DF08BFF311E18BF012128680DF089FFC1
:103B2000E36863602046FFF789FF70BD34410020E1
:103B300008B58168C36851F823201278013351F821
:103B400023301B78003A18BF01220A480270003B5C
:103B500018BF012308480370086832B1074A33B11F
:103B6000064B07490BF068FD08BD064AF7E7054B11
:103B7000F7E700BF5C3300205D330020883A020085
:103B800084410200803A020010B50446074B1868D1
:103B90000EF03BFCA3681B6828B1054A054918468E
:103BA0000BF04AFD10BD044AF8E700BF3441002085
:103BB000E83A0200A4410200683B020010B5044646
:103BC0008368C26853F822301B7863B1032004F085
:103BD00089FA074B18680EF007FCE368636020461B
:103BE000FFF7D2FF10BD024B18680EF00CFCF4E793
:103BF0003441002010B504464368C2689B1A012B6B
:103C000004D1836853F822301B786BB9094B1868CC
:103C10000EF00CFCA3681C6802F03EF80246064950
:103C200020460BF009FD10BD024B18680EF0F8FBA2
:103C3000F0E700BF34410020AC41020010B504465B
:103C40004368C2689B1A012B04D1836853F8223061
:103C50001B786BB9094B18680EF0F4FBA3681C685D
:103C600002F01AF80246064920460BF0E5FC10BDAA
:103C7000024B18680EF0E0FBF0E700BF3441002073
:103C8000AC41020010B504460F4B18680EF0BDFBA6
:103C900090B1A368E26853F8223019780A4B18688B
:103CA0000EF0D6FBA3681C6801F0F6FF0246074938
:103CB00020460BF0C1FC10BDA368054A31211868ED
:103CC0000BF012FDF7E700BF34410020AC410200C9
:103CD000B841020010B504460C4B18680EF095FB75
:103CE00068B10A4B18680EF0B9FBA3681C6801F0B4
:103CF000D3FF0246064920460BF09EFC10BDA36888
:103D0000044A312118680BF0EFFCF7E7344100203A
:103D1000AC410200B84102002DE9F04182B00446F6
:103D20002D4B18680EF071FBB8B16168E068091A94
:103D3000002919DDA36853F820301D78012915DD0D
:103D4000A368421C53F822301E68022910DDA368C4
:103D5000821C53F822301F680BE0A3681F4A3121F0
:103D600018680BF0C1FC2BE02525E7E71C4EECE7BB
:103D70001C4F03290BDDA368033053F8203093F860
:103D80000080B8F1000818BF4FF0010801E04FF0C3
:103D90000008CDF800802B46324639460E480068B0
:103DA0000EF081FB88B9A36818682A46B8F1000FA5
:103DB00009D00D4B0193009733460C490BF03CFCA6
:103DC00002B0BDE8F0810A4BF4E7A368094A32214A
:103DD00018680BF089FCF3E734410020B841020079
:103DE000D6BE898E55555500683B0200D041020071
:103DF000E83A02001842020030B583B004468368F6
:103E0000C26853F822301D78274B18680EF0FDFA6F
:103E100048B3A5F12503DBB2022B2BD80023009376
:103E20002B46224A2249204800680EF03CFB40BB4A
:103E3000252D2DD0262D2FD0272D31D0A3682A4611
:103E40001C4918680BF0F8FB1C221B491B4817F093
:103E500051F81B4B1C221A80E3686360204602F075
:103E60003FFF03B030BDA368164A312118680BF03C
:103E70003BFCF6E7A368144A302118680BF034FCC9
:103E8000EFE7A368114A322118680BF02DFCE8E730
:103E9000002005F047FDD1E70C2005F043FDCDE7FC
:103EA000272005F03FFDC9E734410020D6BE898EAA
:103EB000555555005842020084420200C8080020AF
:103EC000C80C0020B84102003C4202001842020027
:103ED00010B58368C26853F822301B78003B18BFC6
:103EE0000123404A5370002B71D00021D170918082
:103EF0004FF47A7494603C4CD4603C4C14614FF0A5
:103F0000250CA2F806C0917011704168C268891A28
:103F1000012909DD846802F1010C54F82C4094F861
:103F200000C0304C84F803C0022906DD8168941C6F
:103F300051F824100C682B498C604168891A0329B8
:103F400006DD8168D41C51F824100C8825498C802A
:103F50004168891A042906DD8168141D51F824106E
:103F60000C882049CC804168891A052906DD8168C2
:103F7000053251F8222011681A4A11614268C1685D
:103F8000521A062A06DD8268063152F8212011688D
:103F9000144AD1604268C168521A072A0EDD84684B
:103FA00001F1070C54F82C4094F800C0BCF1000C4F
:103FB00018BF4FF0010C0B4C84F802C0082A06DD34
:103FC0008268083152F821201178064A117033B105
:103FD000074A8368074918680BF02EFB10BD064A94
:103FE000F7E700BFC82E002055555500D6BE898E74
:103FF000E83A020070420200683B020008B583689C
:10400000C00A0020D94E0000D54E0000D54E000059
:1040100049810000D54E0000D54E0000D54E00006D
:10402000D54E0000D54E0000D54E0000D54E000004
:10403000D54E0000605503006D420000D54E0000D3
:10404000D54E0000D54E0000D54E0000E9530000CB
:10405000D54E0000D54E0000D54E0000D54E0000D4
:10406000D54E0000D54E0000D18F0000B7440000AF
:10407000D54E0000D54E0000D54E0000D54E0000B4
:10408000D54E0000D54E0000D54E0000D54E0000A4
:10409000D54E0000BD5A0000D54E0000D54E0000A0
:1040A000D54E0000DD5B0000BD5B0000D54E00007A
:1040B000D54E000095440300D54E00005D4E030030
:1040C000014E0300FD4D030039460300594E030025
:1040D000054E03001D4E0300094E0300192E030078
:1040E0009D4E0300D54E0000D54E0000D54E000079
:1040F000D54E0000C17F0000D54E0000D54E000017
:10410000D54E0000D54E0000D54E0000D54E000023
:10411000D54E0000D54E0000D54E0000D54E000013
:10412000D54E0000D54E0000D54E0000D54E000003
:10413000D54E000010B5054C237833B9044B13B1AC
:10414000044800E000BF0123237010BD800F002051
:1041500000000000BC88030008B5034B1BB10349F5
:10416000034800E000BF08BD00000000840F0020ED
:10417000BC880300A3F5803A704700BF174B002BA3
:1041800008BF134B9D46FFF7F5FF00218B460F46F6
:104190001348144A121A31F0DEF80E4B002B00D0EF
:1041A00098470D4B002B00D09847002000210400B9
:1041B0000D000D48002802D00C4800E000BF31F08F
:1041C0005FF82000290000F045F831F045F800BF05
:1041D000000008000000000000000000C00A0020ED
:1041E000800F00207431002000000000000000005B
:1041F00008B500F063F9BDE80840014801F004BAD1
:10420000485503007047000038B543780446012B39
:1042100005D0022B0ED000220120114606E00C48EA
:1042200001F0EFF92246002012F8011BBDE83840EA
:1042300000F014BA054615F8011B00202A4600F0CC
:104240000DFA29462078BDE8384000F00ABA00BFD0
:104250004855030008B504F0D8FEFFF7C9FF04F085
:10426000E1FEFFF7CFFF04F0D7F8F8E708F0BCBE97
:1042700004F0FCBE00B5C3B008F0CAFD08F0F3FDC1
:1042800048B100F025FA30B101A820F0FEFA10B9CB
:1042900001A800F0E9F943B05DF804FB00F0BBBDF4
:1042A00008B50421002002F0BBFD0421062002F025
:1042B000B7FD0721084602F0B3FD0721082002F0F0
:1042C000AFFD07211C2002F0ABFD0721242002F0E6
:1042D000A7FD0721252002F0A3FD002008BD000056
:1042E00007B501A803F0AAFA9DF80530012B27D1E4
:1042F000244A936DDB0313D4536B23F4FF0323F49D
:10430000FE4343F4BC1343F4A0635363136B23F4E1
:10431000704343F440431363136B43F4E06313634C
:104320009DF8043063B94FF000531B68164B1B68AF
:10433000164B1B68164B1B68164B1B68164B1B68ED
:10434000164AD2F8803043F00303C2F8803003F0FD
:104350005BFD00F06BFD03F003FD03F073FD03F064
:1043600007FD03F03BFDFFF79BFF03F0E7FC00F0C8
:104370005BFD01F007F801F041FC03B05DF804EBD0
:1043800003F074BF00C000500040002000800020F7
:1043900000C00020000001200040012000800050EB
:1043A00008B501F0ADF801F0DFFB00F087F800F090
:1043B00095F8BDE8084000F06BBD08B500F029FD98
:1043C00004F036FB03F040FD07F05AF803F00EFE50
:1043D00005F0A6FEBDE8084007F056BA08B503F0A0
:1043E0008DFC03F09BFCBDE80840FFF741BF08B51A
:1043F00000F080FABDE8084000F0BCB8704708B58E
:1044000000F00AFBBDE8084000F0C2BCFFF732BF75
:1044100000F0C0B8012070470120704710B508F0C7
:1044200063FD044600F0BCF9002808BF002400F03A
:10443000DFFC002808BF0024FFF7ECFF002814BFB2
:104440002046002010BD38B504F0D6F8044608F028
:1044500059FD042825D002284FF0000508BF01248B
:1044600000F0B6F904281ED0022808BF012400F08D
:10447000B5FC042819D0022808BF012402F060F915
:10448000042814D0022808BF0124FFF7C5FF042820
:104490000FD0022808BF0124002D18BF0024204699
:1044A00038BD0125DCE70125E1E70125E6E7012527
:1044B000EBE70024F3E700F0E9BA0000014801F05F
:1044C0009DB800BF4855030018B1034B1860002089
:1044D00070472520704700BFF40F002010B5054C31
:1044E0000549206801F0FAFE2068BDE81040FFF79A
:1044F000EBBF00BFE80A0020C40A0020014B186887
:10450000704700BFF40F002038B502F006FF084DD9
:1045100004462846002130F8022B30F01CFF00230F
:1045200020462B8085F80631BDE8384002F0FBBEFE
:10453000FA0F002038B502F0F0FE084D04464FF4A3
:104540008272A81C002130F006FF002320462B8039
:1045500085F80631BDE8384002F0E5BE381100208C
:10456000002208B511464A201EF0B8FEBDE80840FA
:10457000FFF7CABF08B5FFF7C7FFFFF7DBFF00F083
:1045800015FA0022014B1A7008BD00BFF80F002079
:10459000012070472D4938B591F8063153B32C4DA1
:1045A0002B783BBBD1F802002A4A81F8063120F46F
:1045B0007F4323F0070393423AD002F18072934283
:1045C00040D002F17E42934227D006311FF05EFBBD
:1045D0001FF0DAFA0446FFF797FF012320682B70DB
:1045E000030203F4E063C0F30720184321460430BC
:1045F00000F0C0F9184991F8063133B3144B1A781A
:104600001ABB81F80621012231F8020B1A7000F062
:10461000B1F9BDE83840FFF78DBF8A791AB1881D1E
:10462000FFF7F2FDD4E7114601201FF0A7F9CFE70D
:104630008B791BB1881D00F0D3F8C9E701201FF06A
:10464000AFF9C5E700F074FDC2E738BDFA0F0020EE
:10465000F80F00202000FF013811002080B21FF069
:104660008DB91FF095B90000F8B50546006820F433
:104670007F4020F0070000F015F928BB2846FFF71F
:1046800087FF08B32A68114E140204F4E064C2F3F1
:104690000722144302F041FE33880434C3F58272CA
:1046A000944207460BD802332246F018294630F0D0
:1046B0002BFE0123328886F80631144434803846B4
:1046C000BDE8F84002F02FBEF8BD00BF3811002051
:1046D000084A1388C3F58273984208D892F80631C5
:1046E0002BB9054B93F8060180F0010070470020BC
:1046F000704700BF38110020FA0F00200022014B44
:104700001A707047F80F0020F0B50D46044685B0CA
:1047100000B1FEE7039202F000FE1E4F0646388805
:10472000AAB2C0F582739A42039918D8023038446D
:1047300030F0EAFD3988294489B20329398018D933
:10474000D7F802200124130203F4E063C2F3072226
:10475000134304338B4202D887F8064102243046C3
:1047600002F0E1FD022C06D10B4800F04BFA70B1CB
:10477000FEE70124F3E7012C09D100234FF4FA717D
:10478000064A0548009300F057FA00B1FEE705B06D
:10479000F0BD00BFFA0F00200411002061450000A9
:1047A000084B93F8060150B9074B93F806311BB933
:1047B000064B187880F0010000F0010070470020DF
:1047C000FAE700BFFA0F002038110020F80F002090
:1047D00008B5FFF7E5FF002814BF0120042008BD3D
:1047E000F8B543780278012B14D0022B2BD063BB91
:1047F000052A2AD1294C2278082A4AD02849D0F8FB
:1048000002000D46DEB2B24224D845F82200013241
:10481000227016E0052A18D1204D2B78002B3AD0B3
:104820001F4C00222146D0F8026054F8047BD0B21D
:10483000BE421FD10024013B41F822402B70984218
:104840000FDB002002E0012A1AD00120BDE8F84069
:104850001FF0A6B851F8046B0133B042D2D12E201C
:10486000F4E7421C51F8225041F8205041F8224010
:10487000D0B2E4E70132D0B29842D6D32D20E5E79A
:1048800020220021064830F066FD0020034B1870FE
:10489000DCE71C20DAE71B20D8E700BF601200200D
:1048A0004012002010B5084B084A1C780023D9B2EA
:1048B0008C4201D8002010BD52F8041B01338842FD
:1048C000F5D10120F7E700BF601200204012002060
:1048D00038B504460D4602F020FD0022044B5A6014
:1048E00001229D601C601A73BDE8384002F01BBDB8
:1048F0007014002038B54FF482720021174830F050
:104900002AFD4FF482720021154830F024FDFFF794
:10491000F5FD144A0368144D9342286008D002F54F
:104920008042934215D0A2F50042934213D0FEE795
:104930000D230E4A0F20137002F020F92B68044655
:10494000186803F01FF8B4FBF0F0094B8000186002
:1049500038BD0F23EDE70B23EBE700BF6212002009
:104960006C13002000C0055080140020611200204C
:1049700068130020B0F5827F07B5024600D9FEE734
:104980000190074830F0C0FC0648074B019A0449E3
:10499000006801F09FFE00B1FEE703B05DF804FB84
:1049A0006C13002080140020D148000008B5144B7F
:1049B00093F90030002B0CDB012203F01F015B098F
:1049C0009B0003F160438A4003F56143C3F88021F3
:1049D0001A600C4B0C4A18680C4903685A6603F5B8
:1049E00000529164DA6C0A4942F42042DA644FF4CE
:1049F0008272084B01F0D2FD00B1FEE708BD00BF96
:104A00006112002080140020FF002400FFFF01003D
:104A100062120020694A000010B5104C237B5BB184
:104A2000206801F09BFB830607D40D4A6368126877
:104A3000934202D20133636010BDA068003818BFF2
:104A40000120FFF75BFE4FF482720021054830F031
:104A500082FC002363602373EEE700BF7014002024
:104A6000681300206C130020084608B5003819466A
:104A700018BF0120FFF748FEBDE808404FF48272DE
:104A80000021014830F067BC621200202DE9F84394
:104A90004F4C23681B689B6C1B0440F1968002F00E
:104AA0003CFC2468054623685A6E22F4E0225A66CC
:104AB0005A6E42F480225A664FF4004203F50053C6
:104AC0009A6402F02AFC636A06469B889BB243B94B
:104AD00002F029FCFFF76AFF2846BDE8F84302F020
:104AE00022BCE06800F080FF0023D4F8248084F822
:104AF0002C3002F012FCB8F804309BB2002BE7D047
:104B00001427B8F8029002F00EFC1FFA89F907FB8F
:104B100009F909F110014144E06800F0ADFF2D4BA7
:104B2000C844C8F81830D4F82480B8F804309BB2D0
:104B300093B994F83130032B0CD042F2AC520421DB
:104B400023795B0103F1A04303F5703399500222EE
:104B500023685A613046BBE702F0DFFBB8F80490E7
:104B60001FFA89F9B9F1000F04D102F0DCFBD9F882
:104B70000C30FFDEB8F80290B8F80230B8F8062022
:104B80009BB20133B3FBF2F102FB11339BB2A8F8E5
:104B90000230B8F804301FFA89F9013B9BB2A8F83B
:104BA000043007FB098802F0BEFBD8F81490B9F175
:104BB000000FB8D0D8F80C20D8F810300021D31A44
:104BC0002046D8F80820C847ADE7BDE8F88300BF05
:104BD00080140020097000F0002209490B684BB1D5
:104BE000834204D1436A4AB15362012070471A4696
:104BF0005B6AF4E70028F5D0184670470B60F4E7CD
:104C00008414002010B5044690B103F04BFF2046F9
:104C1000FFF7E2FF58B194F8280040B102F07DFBA5
:104C2000044A1368013B136002F07DFB002010BDB5
:104C30002220FCE7881400202DE9F04F85B00546BE
:104C4000914698460E469DF8387009B9002F64D1F8
:104C50002846FFF7D7FF044600283CD185F82800F6
:104C6000286304F047F8864239D904F01FF840F26F
:104C7000E7318C462146E6FB00C14FF47A7260466C
:104C8000002330F051F94FF0FF32002383468A466B
:104C900030F04AF94FF0FF326886002358465146FB
:104CA00030F042F92B46CDE9004411461C4A284613
:104CB00003F093FF044670B91A4AC5E907981368D0
:104CC00085F82970EE6233B31A465B6A002BFBD17C
:104CD000556200236B62204605B0BDE8F08F304678
:104CE00003A957B103F0E8FF04460028F3D12B468F
:104CF000CDE900000A4A0399D9E703F0DDFF044635
:104D00000028E8D12B462846CDE90077044A0399CC
:104D100003F040FFCEE71560DBE72124DBE700BFAF
:104D2000294D00008414002091F8283013B50C465A
:104D300083B90B8E4A8E93420ED243B9CDE900332C
:104D400020460B46104A4FF0FF3103F0EDFE238E54
:104D50000133238602B010BD52B191F829307BB1E6
:104D600001230093D1E907232046C96AFFF764FFB6
:104D70000123064A84F82830136801331360E9E7F9
:104D8000084603F08FFEF3E7294D00008814002049
:104D900070B5104D2B681BB100260F4B1C6804B971
:104DA00070BD94F8283093B102F0B7FA2B6884F8FC
:104DB0002860013B2B6002F0B6FA94F8293013B951
:104DC0002046FFF709FFD4E9073120469847646A77
:104DD000E5E700BF8814002084140020034B1B6803
:104DE000002B0CBF01200420704700BF8814002056
:104DF000024B1868B0FA80F0400970478814002010
:104E0000042208B511460123032002F057FB0020BD
:104E100008BDFFF7F5BF042208B5114600230320A3
:104E200002F04CFB002008BDFFF738BA704770B5A0
:104E30000024064625465B21082000F0BDFB102C0F
:104E400004F1010300D170BD012B14D0022B14D04A
:104E5000032B14D0042B14D0052B04D16A1C294633
:104E6000D5B21C46E8E70D3C012C0CD9102B0CD018
:104E7000B21FD15CF5E70C21F3E7D121F1E78021E6
:104E8000EFE70021EDE75A21EBE75D21E9E70000BC
:104E900013B5082000F084FBFFF730FB01230C4C16
:104EA0008DF8003090F8323020607BB9006802F055
:104EB00069FD236820F07F4093F8313040EA837029
:104EC00001906846FFF7B3FF02B010BD0020F0E785
:104ED0008C140020FEE7000008B500F02DF8124BFE
:104EE00012498B4212D30020114B12498B4218D326
:104EF000FFF744F9186850F82240586840F82240FB
:104F0000013298688242F5D30C33EAE70022F8E7D1
:104F10001C6844F8220001325C68A242F8D30833CE
:104F2000E4E70022F8E700BFC4880300D08803004C
:104F3000D0880300D08803006FF00100104B114AA5
:104F400010B59A60D3F888200F4942F47002C3F874
:104F5000882001F50052106641F2FF705066022071
:104F6000C3F8D000BFF34F8FBFF36F8F08244FF407
:104F700040330648C0F88041D36004600B6110BD27
:104F800000ED00E0004000000080004400E100E08F
:104F9000014B1868704700BFF00B0020014B1860F0
:104FA000704700BFF00B0020084B1B6F03F0070396
:104FB000022B04D0032B05D0012B05D0FEE7044BB8
:104FC00018687047034BFBE70348704700800050A8
:104FD000F00B0020F40B0020002D310108B5FFF785
:104FE000E3FF054B1B6FC3F301330133B0FBF3F059
:104FF000024B186008BD00BF00800050EC0B002081
:105000000048704700B4C404014B1868704700BFE3
:10501000F40B0020054B1860054B1B6F03F00703D2
:10502000032B01D1FFF7DABF704700BFF40B00205C
:10503000008000500020704700487047002D31016B
:10504000174B9868C0F304400C2822D8DFE800F022
:10505000092121212121071719211B1D1F0011489A
:1050600070479B6803F04073B3F1807F13D0B3F1B6
:10507000007F12D00C4A002B08BF104670470B4827
:1050800070470B4870470B4870470B4870470B48F8
:105090007047002070470A4870470A48704700BFB1
:1050A0000040015A405DC60000093D000024F400A4
:1050B000C0EA210180BA8C010048E801005A62026E
:1050C00080841E0040420F004FF4004070474FF4B0
:1050D0007A707047014B1868704700BFF80B0020CA
:1050E000BFF34F8F0549064BCA6802F4E0621343D1
:1050F000CB60BFF34F8F00BFFDE700BF00ED00E0C6
:105100000400FA0500239B6AB3F5804F03D21968A7
:10511000064A914203D00023037083607047012246
:1051200002709A689B694260F7E700BF07B0CD5EE6
:1051300008B54FF00053024A1A60FFF7D1FF00BFD5
:1051400002020FF030B50024A36A87B0B3F5804F98
:10515000054601910FD2012303A88DF80C30CDE94B
:105160000444FFF7CFFF059B5B0504D5A36A2846DF
:105170001B6C0199984707B030BD000073B5464BD2
:1051800004461A781AB102221A7002B070BDCDE935
:1051900000220028F9D001261E7002F0BEF83F4D13
:1051A0003F4B18602DF036FC2B785BB900F026FDE4
:1051B00040B93C4808233C4A3C49006828F074F850
:1051C00000B92E703A4B5A68A2603A4A9A601A6E39
:1051D00022605A6E62601B6E5C043DD5364AD3680D
:1051E000D807FCD4354B1A68531C3AD04FF48013BF
:1051F0009340334A13660423314C23664FF4806393
:10520000236600F03DF901300BD000F039F940F28F
:10521000011398421FBF4FF4804323664FF40043AD
:1052200023661023264C4FF0804223664FF4005330
:105230006846236601A922666366FFF783FF009B29
:105240002366019B63662B78002B9ED0164B1A6851
:1052500022665B68636698E71A4AD368D907FCD46C
:10526000C0E7194B1B78002BC5D1184B5A68144B5B
:1052700012B94FF480121A66154A526812B94FF4E7
:1052800000121A66134B5B68002BB4D14FF48002F6
:105290000B4B1A66AFE700BFA6140020A414002031
:1052A000A8140020040C00209C14002000710800A9
:1052B0000080004455CEAC0000000440FC0B0020F0
:1052C0000090004400000450A51400200080055008
:1052D00000C005500000065038B5214D04462B781B
:1052E000012B02D001232B7038BD0028FCD000F028
:1052F000C7F8013009D000F0C3F840F2011398421A
:1053000003D0184AD368DB07FCD42268164B1A6610
:1053100062685A66A268D40744BF00229A60134BA1
:105320001A68013213D1124A127882B911494968B8
:10533000C80748BF1A60104A5268D10744BF01220B
:105340001A600E4A5268D20744BF02221A602DF03A
:1053500079FB0B4B186801F0E6FF0023C3E700BFA1
:10536000A61400200000044000800044FC0B002034
:10537000A51400200080055000C005500000065014
:10538000A814002070B50024A36AB3F5804F1ED284
:10539000104E337813F0FD0517D10F48FFF7EEFEDE
:1053A00008214FF480330D4A0D48C2F88011C360C4
:1053B00011600C4A1361AB6ADB69984704460648E2
:1053C000FFF78AFF0CB901233370204670BD4FF4FC
:1053D0008174FAE7A51400209014002000E100E099
:1053E00000A000440090004413B51F4B1B7803B984
:1053F000FEE700231D4CCDE900336A4608231C4913
:10540000206827F051FFF0B91A4AD2F84031D2F89B
:1054100040211F2B4FF0010310D9203A9340019AED
:105420001343019308236A461149206827F0F2FECE
:105430004FF00053104A1A60FFF752FE9340009A53
:1054400013430093EEE70D4B9842F1D1094AD2F88D
:105450004031D2F840211F2B4FF0010302D9203AEE
:105460009340DEE79340ECE7A6140020040C0020F4
:1054700000710800008000440B020FF00BE000F008
:105480001FB500239A6AB2F5804F04D340F2011091
:1054900005B05DF804FB126BB2F5804FF6D2012225
:1054A00001A8CDE902338DF80420FFF72BFE039B02
:1054B000DB03EBD5029B1A0EE8D0012A03D1C3F31C
:1054C00007430A2BE2D900239B6A1B6B1B6C98478E
:1054D000DEE700230360704703680B6001607047DC
:1054E00005490A681318054883428CBF4FF0FF3204
:1054F0000B601046704700BF000C002000800120A8
:1055000008B5042201230321002001F0D7FF002069
:1055100001F08FFF01221B4B0521C3F844240C200E
:1055200001F07EFC0C2001F029FB174B00F5D52083
:10553000D3F8F02000F2FC4042F00102C3F8F02062
:10554000D3F8FC2042F08072C3F8FC200F4AA3F588
:105550005D431A600E4B0222B0FBF3F00D4B013895
:105560001861C3F8F0204FF48072C3F804234FF0A1
:105570006043094A0020C3F8B02F084AC3F8802EC0
:1055800008BD00BF00D0035000ED00E0FF03004065
:10559000F8590D00000004E055CEACC5090001002B
:1055A0004FF060420123D2F8001E03FA00F00843D6
:1055B000C2F8000E002070474FF06043D3F8802EF1
:1055C00030B5D20715D501240B4D8440D5F8FC2009
:1055D00042F08072C5F8FC20D3F8002E2243C3F8B5
:1055E000002E53F82020002AF0D003F820100020CD
:1055F00030BD1120FCE700BF00ED00E0D0E9000362
:105600001847836800681847C3680068184708B5DA
:1056100083784178B3FA83F3042200785B0901F0C0
:105620004DFF002008BD000010B50122437801782D
:10563000847830209A40054B00FB01331CB942F2BC
:1056400010015A5010BD41F21001FAE700C003509A
:1056500010B5012243780178847830209A40054BB8
:1056600000FB01331CB941F210015A5010BD42F247
:105670001001FAE700C003500122417803788A4004
:1056800030214B4343F2100103F1A04303F5703383
:105690005A507047302310210246007813FB001344
:1056A00003F1A04303F5703350781B68C34003F047
:1056B000010093780BB980F0010070472DE9F04F9D
:1056C0009A46564B85B01B7806460F461546DDF8C0
:1056D0003C909DF844B0DDF85080002B00F08D80A8
:1056E000072A00F28C800E9B002B00F08880B9F115
:1056F000000F00F08480129BB3F5006F7FDC01285F
:1057000002D1109B002B7AD0454B03EB05131B7B7A
:10571000002B76D0434C1022002168462FF01BFE50
:1057200004EB45141022002F59D1394620462FF0A2
:1057300012FE43F210036380BBF1000F03D1E37844
:1057400043F00303E370374A0E9B02EB451CCCE9A0
:105750000193129B6901013BC3F30A009DF84C3091
:10576000012E03F003034FEA836343EA001E5358FC
:105770002D48CDF800A000EA03004EEA0003535084
:1057800041D113230CF1100ECCF80C309CE80F0023
:105790008EE80F006FF00301DCF81C20109B61F312
:1057A0009F02012FCCF81C20CCF8143003D1CCF888
:1057B0001890CCF804300027194A290102EB051390
:1057C00042F80180159A28465A60694622469F6031
:1057D0005E7301F0EDFE384605B0BDE8F08F0021A4
:1057E00020462FF0B8FD4FF444736380BBF1000FE7
:1057F000A9D1E37843F03003A4E70C48ECE70C4868
:10580000EAE70C48E8E7B8F1000FD4D19CF8023081
:1058100068F304138CF80230CDE700BF2C1600208B
:10582000AC1400202C1500200F80FFF3028000F044
:10583000018000F0078000F038B5124B05461B7858
:10584000DBB1E0B101F069FD0F4A00231146147B82
:1058500054B92B6001251A0101EB03131D738C5001
:1058600001F061FD204638BD0133082B02F1100222
:10587000EDD101F058FD0548F5E70548F3E7054887
:10588000F1E700BF2C160020AC140020048000F0CB
:10589000028000F0018000F0154B13B5186800235A
:1058A00001908DF8043001F038FD124B1C7824B1C2
:1058B00001F039FD104802B010BD01221A7001F04C
:1058C00032FD0E4B01A81C731C7783F82C4083F823
:1058D0003C4083F84C4083F85C4083F86C4083F88C
:1058E0007C4008238DF8073001F038FE2046E2E7BF
:1058F000B05503002C160020038000F0AC140020EB
:1059000010B588B00E9C009207940D9C0246069438
:105910009DF8304005940B9C04949DF82840039416
:105920000024CDE9013420460B462146FFF7C6FE90
:1059300008B010BD10B588B00E9C009207940D9C65
:10594000024606949DF8304005940B9C04949DF803
:10595000284003940024CDE9013420460B46012160
:10596000FFF7ACFE08B010BD0A4A08B512785AB16C
:1059700007280BD8084A02EB00131B7B43B1002118
:1059800001F0DEFD002008BD0448FCE70448FAE70A
:105990000448F8E72C160020AC140020028000F028
:1059A000018000F0078000F00A4A08B512785AB169
:1059B00007280BD8084A02EB00131B7B43B10121D7
:1059C00001F0BEFD002008BD0448FCE70448FAE7EA
:1059D0000448F8E72C160020AC140020028000F0E8
:1059E000018000F0078000F00A4A08B5127852B131
:1059F00007280AD8084A02EB00131B7B3BB101F0D1
:105A000025FE002008BD0548FCE70548FAE70548E3
:105A1000F8E700BF2C160020AC140020028000F034
:105A2000018000F0078000F00D4B1B7893B1072830
:105A300012D889B10B4B03EB00131B7B73B10A4BDC
:105A4000DA6A012303FA00F010401ABF00200B703D
:105A5000087070470548704705487047054870470B
:105A60002C160020AC14002000000450028000F02E
:105A7000018000F0078000F00B4A10B512780C4648
:105A800062B107280CD859B1084A02EB00131B7BFE
:105A900043B101F0EDFD2060002010BD0448FCE79B
:105AA0000448FAE70448F8E72C160020AC1400205C
:105AB000028000F0018000F0078000F02DE9F8433B
:105AC000174B1F6D5B6D1F4000D5FEE701260025BB
:105AD000144CDFF85480DFF85490374217D0236815
